{
  "contractName": "Faucet",
  "abi": [
    {
      "inputs": [],
      "name": "numOfFunders",
      "outputs": [
        {
          "internalType": "uint256",
          "name": "",
          "type": "uint256"
        }
      ],
      "stateMutability": "view",
      "type": "function"
    },
    {
      "inputs": [],
      "name": "owner",
      "outputs": [
        {
          "internalType": "address",
          "name": "",
          "type": "address"
        }
      ],
      "stateMutability": "view",
      "type": "function"
    },
    {
      "inputs": [],
      "name": "testNum",
      "outputs": [
        {
          "internalType": "uint256",
          "name": "",
          "type": "uint256"
        }
      ],
      "stateMutability": "view",
      "type": "function"
    },
    {
      "stateMutability": "payable",
      "type": "receive"
    },
    {
      "inputs": [],
      "name": "example",
      "outputs": [
        {
          "internalType": "bytes32",
          "name": "",
          "type": "bytes32"
        }
      ],
      "stateMutability": "pure",
      "type": "function"
    },
    {
      "inputs": [],
      "name": "addFunds",
      "outputs": [],
      "stateMutability": "payable",
      "type": "function"
    },
    {
      "inputs": [
        {
          "internalType": "uint256",
          "name": "withdrawAmount",
          "type": "uint256"
        }
      ],
      "name": "withdraw",
      "outputs": [],
      "stateMutability": "nonpayable",
      "type": "function"
    },
    {
      "inputs": [],
      "name": "getAllFunders",
      "outputs": [
        {
          "internalType": "address[]",
          "name": "",
          "type": "address[]"
        }
      ],
      "stateMutability": "view",
      "type": "function"
    },
    {
      "inputs": [
        {
          "internalType": "uint256",
          "name": "index",
          "type": "uint256"
        }
      ],
      "name": "getFunderIndex",
      "outputs": [
        {
          "internalType": "address",
          "name": "",
          "type": "address"
        }
      ],
      "stateMutability": "view",
      "type": "function"
    }
  ],
  "bytecode": "0x608060405234801561001057600080fd5b50336000806101000a81548173ffffffffffffffffffffffffffffffffffffffff021916908373ffffffffffffffffffffffffffffffffffffffff1602179055506103e86001819055506108c9806100696000396000f3fe60806040526004361061007f5760003560e01c80638da5cb5b1161004e5780638da5cb5b14610147578063a26759cb14610172578063ae28f1ed1461017c578063af7f2c9b146101a757610086565b80632e1a7d4d1461008b57806354353f2f146100b45780636fbbb55d146100df57806389a620db1461010a57610086565b3661008657005b600080fd5b34801561009757600080fd5b506100b260048036038101906100ad9190610553565b6101d2565b005b3480156100c057600080fd5b506100c9610269565b6040516100d69190610599565b60405180910390f35b3480156100eb57600080fd5b506100f4610291565b60405161010191906106a4565b60405180910390f35b34801561011657600080fd5b50610131600480360381019061012c9190610553565b61038b565b60405161013e91906106d5565b60405180910390f35b34801561015357600080fd5b5061015c6103c8565b60405161016991906106d5565b60405180910390f35b61017a6103ec565b005b34801561018857600080fd5b5061019161050c565b60405161019e91906106ff565b60405180910390f35b3480156101b357600080fd5b506101bc610512565b6040516101c991906106ff565b60405180910390f35b8067016345785d8a000081111561021e576040517f08c379a00000000000000000000000000000000000000000000000000000000081526004016102159061079d565b60405180910390fd5b3373ffffffffffffffffffffffffffffffffffffffff166108fc839081150290604051600060405180830381858888f19350505050158015610264573d6000803e3d6000fd5b505050565b60007f48656c6c6f20776f726c64000000000000000000000000000000000000000000905090565b6060600060025467ffffffffffffffff8111156102b1576102b06107bd565b5b6040519080825280602002602001820160405280156102df5781602001602082028036833780820191505090505b50905060005b600254811015610383576004600082815260200190815260200160002060009054906101000a900473ffffffffffffffffffffffffffffffffffffffff16828281518110610336576103356107ec565b5b602002602001019073ffffffffffffffffffffffffffffffffffffffff16908173ffffffffffffffffffffffffffffffffffffffff1681525050808061037b9061084a565b9150506102e5565b508091505090565b60006004600083815260200190815260200160002060009054906101000a900473ffffffffffffffffffffffffffffffffffffffff169050919050565b60008054906101000a900473ffffffffffffffffffffffffffffffffffffffff1681565b6000339050600360008273ffffffffffffffffffffffffffffffffffffffff1673ffffffffffffffffffffffffffffffffffffffff16815260200190815260200160002060009054906101000a900460ff16610509576000600260008154809291906104579061084a565b9190505590506001600360008473ffffffffffffffffffffffffffffffffffffffff1673ffffffffffffffffffffffffffffffffffffffff16815260200190815260200160002060006101000a81548160ff021916908315150217905550816004600083815260200190815260200160002060006101000a81548173ffffffffffffffffffffffffffffffffffffffff021916908373ffffffffffffffffffffffffffffffffffffffff160217905550505b50565b60015481565b60025481565b600080fd5b6000819050919050565b6105308161051d565b811461053b57600080fd5b50565b60008135905061054d81610527565b92915050565b60006020828403121561056957610568610518565b5b60006105778482850161053e565b91505092915050565b6000819050919050565b61059381610580565b82525050565b60006020820190506105ae600083018461058a565b92915050565b600081519050919050565b600082825260208201905092915050565b6000819050602082019050919050565b600073ffffffffffffffffffffffffffffffffffffffff82169050919050565b600061060b826105e0565b9050919050565b61061b81610600565b82525050565b600061062d8383610612565b60208301905092915050565b6000602082019050919050565b6000610651826105b4565b61065b81856105bf565b9350610666836105d0565b8060005b8381101561069757815161067e8882610621565b975061068983610639565b92505060018101905061066a565b5085935050505092915050565b600060208201905081810360008301526106be8184610646565b905092915050565b6106cf81610600565b82525050565b60006020820190506106ea60008301846106c6565b92915050565b6106f98161051d565b82525050565b600060208201905061071460008301846106f0565b92915050565b600082825260208201905092915050565b7f43616e6e6f74207769746864726177206d6f7265207468616e20302e3120455460008201527f4800000000000000000000000000000000000000000000000000000000000000602082015250565b600061078760218361071a565b91506107928261072b565b604082019050919050565b600060208201905081810360008301526107b68161077a565b9050919050565b7f4e487b7100000000000000000000000000000000000000000000000000000000600052604160045260246000fd5b7f4e487b7100000000000000000000000000000000000000000000000000000000600052603260045260246000fd5b7f4e487b7100000000000000000000000000000000000000000000000000000000600052601160045260246000fd5b60006108558261051d565b91507fffffffffffffffffffffffffffffffffffffffffffffffffffffffffffffffff8214156108885761088761081b565b5b60018201905091905056fea2646970667358221220548b908c7f952813ec1d3b562f261119492ceccb5592ed358eae898d4522ae3b64736f6c63430008090033",
  "immutableReferences": {},
  "source": "pragma solidity >=0.4.22 <0.9.0;\nimport './Owned.sol'; // import Owned contract\nimport './Logger.sol';\nimport './IFaucet.sol';\n\ncontract Faucet is Owned, Logger, IFaucet { // Owned is now inherited to this contract\n\n  uint public numOfFunders;\n\n  mapping(address => bool) private funders;\n  mapping(uint => address) private lutFunders; // \"Look up table Funders\" \n\n   \n  modifier withdrawLimit(uint amount) {\n     require(amount <= 100000000000000000, \"Cannot withdraw more than 0.1 ETH\"); // includes a message if False  \n     _;  \n   }\n\n  receive() external payable {}\n\n\n  function example() public override pure returns(bytes32){\n    return \"Hello world\";\n  }\n\n\n  function addFunds() override external payable {   \n      address funder = msg.sender; \n\n      if(!funders[funder]){ // if this address doesn't already exist, add it to the list \n        uint index = numOfFunders++;\n        funders[funder] = true; \n        lutFunders[index] = funder;\n      }\n  }\n\n  //withdraws funds\n  function withdraw(uint withdrawAmount) override external withdrawLimit(withdrawAmount){\n    payable(msg.sender).transfer(withdrawAmount);\n  }\n\n  function getAllFunders() external view returns(address[] memory) {\n    address[] memory _funders = new address[](numOfFunders);  // creates a new array, where the length equals \"numOfFunders\"\n    // loop over the _funders array \n    for (uint i = 0; i < numOfFunders; i ++ ) {\n      _funders[i] = lutFunders[i];\n    }\n\n    return _funders;\n  }\n\n  function getFunderIndex(uint index) external view returns(address) {\n    return lutFunders[index];\n  }\n\n}\n\n/*  \nconst instance = await Faucet.deployed()\ninstance.addFunds()\ninstance.addFunds({from: accounts[0], value: '2000000000000000000'})\ninstance.addFunds({from: accounts[1], value: '2000000000000000000'})\ninstance.getAllFunders()\ninstance.getFunderIndex(0)\ninstance.withdraw('500000000000000000', {from: accounts[1]})\n*/",
  "sourcePath": "/Users/charlesbuckley/Desktop/storage.eth-/contracts/FaucetContract.sol",
  "compiler": {
    "name": "solc",
    "version": "0.8.9+commit.e5eed63a.Emscripten.clang"
  },
  "schemaVersion": "3.4.3",
  "updatedAt": "2021-11-20T18:17:23.643Z",
  "devdoc": {
    "kind": "dev",
    "methods": {},
    "version": 1
  },
  "userdoc": {
    "kind": "user",
    "methods": {},
    "version": 1
  }
}